{
  "contractName": "ElectionContract",
  "abi": [
    {
      "inputs": [],
      "stateMutability": "nonpayable",
      "type": "constructor"
    },
    {
      "anonymous": false,
      "inputs": [
        {
          "indexed": true,
          "internalType": "uint256",
          "name": "id",
          "type": "uint256"
        },
        {
          "indexed": false,
          "internalType": "string",
          "name": "name",
          "type": "string"
        }
      ],
      "name": "CandidateAdded",
      "type": "event"
    },
    {
      "anonymous": false,
      "inputs": [
        {
          "indexed": false,
          "internalType": "uint256",
          "name": "electionId",
          "type": "uint256"
        },
        {
          "indexed": false,
          "internalType": "uint256",
          "name": "candidateId",
          "type": "uint256"
        }
      ],
      "name": "CandidateAssociatedToElection",
      "type": "event"
    },
    {
      "anonymous": false,
      "inputs": [
        {
          "indexed": false,
          "internalType": "uint256",
          "name": "electionId",
          "type": "uint256"
        },
        {
          "indexed": false,
          "internalType": "string",
          "name": "electionName",
          "type": "string"
        }
      ],
      "name": "ElectionCreated",
      "type": "event"
    },
    {
      "anonymous": false,
      "inputs": [
        {
          "indexed": false,
          "internalType": "uint256",
          "name": "electionId",
          "type": "uint256"
        },
        {
          "indexed": false,
          "internalType": "uint256",
          "name": "totalVotes",
          "type": "uint256"
        }
      ],
      "name": "LogTotalVotes",
      "type": "event"
    },
    {
      "anonymous": false,
      "inputs": [
        {
          "indexed": true,
          "internalType": "uint256",
          "name": "_electionId",
          "type": "uint256"
        },
        {
          "indexed": false,
          "internalType": "string",
          "name": "winnerName",
          "type": "string"
        },
        {
          "indexed": false,
          "internalType": "uint256",
          "name": "winnerVoteCount",
          "type": "uint256"
        }
      ],
      "name": "ResultsPublished",
      "type": "event"
    },
    {
      "anonymous": false,
      "inputs": [
        {
          "indexed": false,
          "internalType": "address",
          "name": "elector",
          "type": "address"
        },
        {
          "indexed": false,
          "internalType": "uint256",
          "name": "candidateId",
          "type": "uint256"
        }
      ],
      "name": "VoteCast",
      "type": "event"
    },
    {
      "anonymous": false,
      "inputs": [
        {
          "indexed": false,
          "internalType": "uint256",
          "name": "electionId",
          "type": "uint256"
        }
      ],
      "name": "VotingClosed",
      "type": "event"
    },
    {
      "anonymous": false,
      "inputs": [
        {
          "indexed": false,
          "internalType": "uint256",
          "name": "electionId",
          "type": "uint256"
        }
      ],
      "name": "VotingOpened",
      "type": "event"
    },
    {
      "inputs": [],
      "name": "admin",
      "outputs": [
        {
          "internalType": "address",
          "name": "",
          "type": "address"
        }
      ],
      "stateMutability": "view",
      "type": "function",
      "constant": true
    },
    {
      "inputs": [
        {
          "internalType": "uint256",
          "name": "",
          "type": "uint256"
        }
      ],
      "name": "candidates",
      "outputs": [
        {
          "internalType": "uint256",
          "name": "id",
          "type": "uint256"
        },
        {
          "internalType": "string",
          "name": "name",
          "type": "string"
        },
        {
          "internalType": "uint256",
          "name": "voteCount",
          "type": "uint256"
        }
      ],
      "stateMutability": "view",
      "type": "function",
      "constant": true
    },
    {
      "inputs": [],
      "name": "candidatesCount",
      "outputs": [
        {
          "internalType": "uint256",
          "name": "",
          "type": "uint256"
        }
      ],
      "stateMutability": "view",
      "type": "function",
      "constant": true
    },
    {
      "inputs": [
        {
          "internalType": "uint256",
          "name": "",
          "type": "uint256"
        }
      ],
      "name": "elections",
      "outputs": [
        {
          "internalType": "uint256",
          "name": "id",
          "type": "uint256"
        },
        {
          "internalType": "string",
          "name": "name",
          "type": "string"
        },
        {
          "internalType": "bool",
          "name": "isClosed",
          "type": "bool"
        },
        {
          "internalType": "uint256",
          "name": "totalVotes",
          "type": "uint256"
        }
      ],
      "stateMutability": "view",
      "type": "function",
      "constant": true
    },
    {
      "inputs": [],
      "name": "electionsCount",
      "outputs": [
        {
          "internalType": "uint256",
          "name": "",
          "type": "uint256"
        }
      ],
      "stateMutability": "view",
      "type": "function",
      "constant": true
    },
    {
      "inputs": [
        {
          "internalType": "address",
          "name": "",
          "type": "address"
        }
      ],
      "name": "electors",
      "outputs": [
        {
          "internalType": "bool",
          "name": "hasVoted",
          "type": "bool"
        },
        {
          "internalType": "uint256",
          "name": "voteCandidateId",
          "type": "uint256"
        }
      ],
      "stateMutability": "view",
      "type": "function",
      "constant": true
    },
    {
      "inputs": [
        {
          "internalType": "uint256",
          "name": "",
          "type": "uint256"
        }
      ],
      "name": "voteAuditTrail",
      "outputs": [
        {
          "internalType": "address",
          "name": "voter",
          "type": "address"
        },
        {
          "internalType": "uint256",
          "name": "candidateId",
          "type": "uint256"
        }
      ],
      "stateMutability": "view",
      "type": "function",
      "constant": true
    },
    {
      "inputs": [
        {
          "internalType": "string",
          "name": "_name",
          "type": "string"
        }
      ],
      "name": "addCandidate",
      "outputs": [],
      "stateMutability": "nonpayable",
      "type": "function"
    },
    {
      "inputs": [
        {
          "internalType": "string",
          "name": "_name",
          "type": "string"
        }
      ],
      "name": "createElection",
      "outputs": [
        {
          "internalType": "uint256",
          "name": "",
          "type": "uint256"
        }
      ],
      "stateMutability": "nonpayable",
      "type": "function"
    },
    {
      "inputs": [
        {
          "internalType": "uint256",
          "name": "_electionId",
          "type": "uint256"
        },
        {
          "internalType": "uint256",
          "name": "_candidateId",
          "type": "uint256"
        }
      ],
      "name": "addCandidateToElection",
      "outputs": [],
      "stateMutability": "nonpayable",
      "type": "function"
    },
    {
      "inputs": [
        {
          "internalType": "uint256",
          "name": "_electionId",
          "type": "uint256"
        }
      ],
      "name": "openVoting",
      "outputs": [],
      "stateMutability": "nonpayable",
      "type": "function"
    },
    {
      "inputs": [
        {
          "internalType": "uint256",
          "name": "_electionId",
          "type": "uint256"
        }
      ],
      "name": "closeVoting",
      "outputs": [],
      "stateMutability": "nonpayable",
      "type": "function"
    },
    {
      "inputs": [
        {
          "internalType": "uint256",
          "name": "_electionId",
          "type": "uint256"
        },
        {
          "internalType": "uint256",
          "name": "_candidateId",
          "type": "uint256"
        }
      ],
      "name": "vote",
      "outputs": [],
      "stateMutability": "nonpayable",
      "type": "function"
    },
    {
      "inputs": [
        {
          "internalType": "uint256",
          "name": "_electionId",
          "type": "uint256"
        }
      ],
      "name": "getElectionResults",
      "outputs": [
        {
          "internalType": "string",
          "name": "winnerName",
          "type": "string"
        },
        {
          "internalType": "uint256",
          "name": "winnerVoteCount",
          "type": "uint256"
        },
        {
          "internalType": "string[]",
          "name": "candidateNames",
          "type": "string[]"
        },
        {
          "internalType": "uint256[]",
          "name": "candidateVotes",
          "type": "uint256[]"
        },
        {
          "internalType": "uint256[]",
          "name": "candidatePercentages",
          "type": "uint256[]"
        },
        {
          "internalType": "uint256",
          "name": "totalVotes",
          "type": "uint256"
        }
      ],
      "stateMutability": "view",
      "type": "function",
      "constant": true
    },
    {
      "inputs": [],
      "name": "getVoteAuditTrail",
      "outputs": [
        {
          "components": [
            {
              "internalType": "address",
              "name": "voter",
              "type": "address"
            },
            {
              "internalType": "uint256",
              "name": "candidateId",
              "type": "uint256"
            }
          ],
          "internalType": "struct ElectionContract.VoteRecord[]",
          "name": "",
          "type": "tuple[]"
        }
      ],
      "stateMutability": "view",
      "type": "function",
      "constant": true
    }
  ],
  "bytecode": "0x608060405234801561001057600080fd5b50336000806101000a81548173ffffffffffffffffffffffffffffffffffffffff021916908373ffffffffffffffffffffffffffffffffffffffff160217905550612481806100606000396000f3fe608060405234801561001057600080fd5b50600436106100f55760003560e01c80635e6fef0111610097578063b384abef11610066578063b384abef1461029f578063d2111a72146102bb578063e8ededa6146102d7578063f851a4401461030c576100f5565b80635e6fef01146102165780635f2ba6b214610249578063778c6439146102655780639a74c69514610281576100f5565b80632d35a8a2116100d35780632d35a8a2146101795780633477ee2e14610197578063462e91ec146101c957806349175295146101e5576100f5565b80630356daed146100fa578063067efedf1461011857806315cf4a5f14610149575b600080fd5b61010261032a565b60405161010f9190611d7f565b60405180910390f35b610132600480360381019061012d91906117a5565b6103e9565b604051610140929190611da1565b60405180910390f35b610163600480360381019061015e91906117ce565b61041a565b6040516101709190611f89565b60405180910390f35b610181610563565b60405161018e9190611f89565b60405180910390f35b6101b160048036038101906101ac919061180f565b610569565b6040516101c093929190612020565b60405180910390f35b6101e360048036038101906101de91906117ce565b61061b565b005b6101ff60048036038101906101fa919061180f565b610765565b60405161020d929190611d56565b60405180910390f35b610230600480360381019061022b919061180f565b6107b9565b6040516102409493929190611fd4565b60405180910390f35b610263600480360381019061025e919061180f565b61087e565b005b61027f600480360381019061027a9190611838565b6109df565b005b610289610b9b565b6040516102969190611f89565b60405180910390f35b6102b960048036038101906102b49190611838565b610ba1565b005b6102d560048036038101906102d0919061180f565b610ef9565b005b6102f160048036038101906102ec919061180f565b61105a565b60405161030396959493929190611dec565b60405180910390f35b61031461164c565b6040516103219190611d3b565b60405180910390f35b60606006805480602002602001604051908101604052809291908181526020016000905b828210156103e057838290600052602060002090600202016040518060400160405290816000820160009054906101000a900473ffffffffffffffffffffffffffffffffffffffff1673ffffffffffffffffffffffffffffffffffffffff1673ffffffffffffffffffffffffffffffffffffffff1681526020016001820154815250508152602001906001019061034e565b50505050905090565b60036020528060005260406000206000915090508060000160009054906101000a900460ff16908060010154905082565b60008060009054906101000a900473ffffffffffffffffffffffffffffffffffffffff1673ffffffffffffffffffffffffffffffffffffffff163373ffffffffffffffffffffffffffffffffffffffff16146104ab576040517f08c379a00000000000000000000000000000000000000000000000000000000081526004016104a290611e89565b60405180910390fd5b600260008154809291906104be90612307565b9190505550600060056000600254815260200190815260200160002090506002548160000181905550828160010190805190602001906104ff929190611670565b5060018160020160006101000a81548160ff0219169083151502179055507f52be7c4e77b4de76b7607d621492061fe13b58597e72dfb5e51ab8f6187ed14160025484604051610550929190611fa4565b60405180910390a1600254915050919050565b60015481565b6004602052806000526040600020600091509050806000015490806001018054610592906122d5565b80601f01602080910402602001604051908101604052809291908181526020018280546105be906122d5565b801561060b5780601f106105e05761010080835404028352916020019161060b565b820191906000526020600020905b8154815290600101906020018083116105ee57829003601f168201915b5050505050908060020154905083565b60008054906101000a900473ffffffffffffffffffffffffffffffffffffffff1673ffffffffffffffffffffffffffffffffffffffff163373ffffffffffffffffffffffffffffffffffffffff16146106a9576040517f08c379a00000000000000000000000000000000000000000000000000000000081526004016106a090611e89565b60405180910390fd5b600160008154809291906106bc90612307565b919050555060405180606001604052806001548152602001828152602001600081525060046000600154815260200190815260200160002060008201518160000155602082015181600101908051906020019061071a929190611670565b50604082015181600201559050506001547fe83b2a43e7e82d975c8a0a6d2f045153c869e111136a34d1889ab7b598e396a38260405161075a9190611dca565b60405180910390a250565b6006818154811061077557600080fd5b90600052602060002090600202016000915090508060000160009054906101000a900473ffffffffffffffffffffffffffffffffffffffff16908060010154905082565b60056020528060005260406000206000915090508060000154908060010180546107e2906122d5565b80601f016020809104026020016040519081016040528092919081815260200182805461080e906122d5565b801561085b5780601f106108305761010080835404028352916020019161085b565b820191906000526020600020905b81548152906001019060200180831161083e57829003601f168201915b5050505050908060020160009054906101000a900460ff16908060040154905084565b60008054906101000a900473ffffffffffffffffffffffffffffffffffffffff1673ffffffffffffffffffffffffffffffffffffffff163373ffffffffffffffffffffffffffffffffffffffff161461090c576040517f08c379a000000000000000000000000000000000000000000000000000000000815260040161090390611e89565b60405180910390fd5b600115156005600083815260200190815260200160002060020160009054906101000a900460ff16151514610976576040517f08c379a000000000000000000000000000000000000000000000000000000000815260040161096d90611ec9565b60405180910390fd5b60006005600083815260200190815260200160002060020160006101000a81548160ff0219169083151502179055507fe0a358d4a766346f1ece85d22e2197435d610d9638874a0fd6746e58a1b1f58a816040516109d49190611f89565b60405180910390a150565b60008054906101000a900473ffffffffffffffffffffffffffffffffffffffff1673ffffffffffffffffffffffffffffffffffffffff163373ffffffffffffffffffffffffffffffffffffffff1614610a6d576040517f08c379a0000000000000000000000000000000000000000000000000000000008152600401610a6490611e89565b60405180910390fd5b600060056000848152602001908152602001600020600001541415610ac7576040517f08c379a0000000000000000000000000000000000000000000000000000000008152600401610abe90611f49565b60405180910390fd5b600060046000838152602001908152602001600020600001541415610b21576040517f08c379a0000000000000000000000000000000000000000000000000000000008152600401610b1890611ea9565b60405180910390fd5b600560008381526020019081526020016000206003018190806001815401808255809150506001900390600052602060002001600090919091909150557f53e77cff1443a94a0f2329eaebf48556e07fca88a138670b61704456cd27ebed8282604051610b8f92919061205e565b60405180910390a15050565b60025481565b816005600082815260200190815260200160002060020160009054906101000a900460ff1615610c06576040517f08c379a0000000000000000000000000000000000000000000000000000000008152600401610bfd90611f29565b60405180910390fd5b600360003373ffffffffffffffffffffffffffffffffffffffff1673ffffffffffffffffffffffffffffffffffffffff16815260200190815260200160002060000160009054906101000a900460ff1615610c96576040517f08c379a0000000000000000000000000000000000000000000000000000000008152600401610c8d90611e69565b60405180910390fd5b600082118015610ca857506001548211155b610ce7576040517f08c379a0000000000000000000000000000000000000000000000000000000008152600401610cde90611f69565b60405180910390fd5b604051806040016040528060011515815260200183815250600360003373ffffffffffffffffffffffffffffffffffffffff1673ffffffffffffffffffffffffffffffffffffffff16815260200190815260200160002060008201518160000160006101000a81548160ff02191690831515021790555060208201518160010155905050600460008381526020019081526020016000206002016000815480929190610d9290612307565b9190505550600560008481526020019081526020016000206004016000815480929190610dbe90612307565b9190505550600660405180604001604052803373ffffffffffffffffffffffffffffffffffffffff16815260200184815250908060018154018082558091505060019003906000526020600020906002020160009091909190915060008201518160000160006101000a81548173ffffffffffffffffffffffffffffffffffffffff021916908373ffffffffffffffffffffffffffffffffffffffff1602179055506020820151816001015550507fa36cc2bebb74db33e9f88110a07ef56e1b31b24b4c4f51b54b1664266e29f45b3383604051610e9d929190611d56565b60405180910390a17f5de8085ac3a011711416775f47b48f43fcac44476aa934c5fa5b311c72fe9f59836005600086815260200190815260200160002060040154604051610eec92919061205e565b60405180910390a1505050565b60008054906101000a900473ffffffffffffffffffffffffffffffffffffffff1673ffffffffffffffffffffffffffffffffffffffff163373ffffffffffffffffffffffffffffffffffffffff1614610f87576040517f08c379a0000000000000000000000000000000000000000000000000000000008152600401610f7e90611e89565b60405180910390fd5b600015156005600083815260200190815260200160002060020160009054906101000a900460ff16151514610ff1576040517f08c379a0000000000000000000000000000000000000000000000000000000008152600401610fe890611ee9565b60405180910390fd5b60016005600083815260200190815260200160002060020160006101000a81548160ff0219169083151502179055507f8e9b46a70b3967bc9ea56ca61732c363a191fac88ae3ba011f4e030711c901178160405161104f9190611f89565b60405180910390a150565b606060006060806060600080600560008981526020019081526020016000206000015414156110be576040517f08c379a00000000000000000000000000000000000000000000000000000000081526004016110b590611f49565b60405180910390fd5b600115156005600089815260200190815260200160002060020160009054906101000a900460ff16151514611128576040517f08c379a000000000000000000000000000000000000000000000000000000000815260040161111f90611f09565b60405180910390fd5b600560008881526020019081526020016000206004015490506000806000600560008b81526020019081526020016000206003018054905090508067ffffffffffffffff8111156111a2577f4e487b7100000000000000000000000000000000000000000000000000000000600052604160045260246000fd5b6040519080825280602002602001820160405280156111d557816020015b60608152602001906001900390816111c05790505b5096508067ffffffffffffffff811115611218577f4e487b7100000000000000000000000000000000000000000000000000000000600052604160045260246000fd5b6040519080825280602002602001820160405280156112465781602001602082028036833780820191505090505b5095508067ffffffffffffffff811115611289577f4e487b7100000000000000000000000000000000000000000000000000000000600052604160045260246000fd5b6040519080825280602002602001820160405280156112b75781602001602082028036833780820191505090505b50945060005b818110156115fd576000600560008d81526020019081526020016000206003018281548110611315577f4e487b7100000000000000000000000000000000000000000000000000000000600052603260045260246000fd5b9060005260206000200154905060006004600083815260200190815260200160002060020154905060046000838152602001908152602001600020600101805461135e906122d5565b80601f016020809104026020016040519081016040528092919081815260200182805461138a906122d5565b80156113d75780601f106113ac576101008083540402835291602001916113d7565b820191906000526020600020905b8154815290600101906020018083116113ba57829003601f168201915b50505050508a8481518110611415577f4e487b7100000000000000000000000000000000000000000000000000000000600052603260045260246000fd5b60200260200101819052508089848151811061145a577f4e487b7100000000000000000000000000000000000000000000000000000000600052603260045260246000fd5b60200260200101818152505060008711156114d1578660648261147d91906121f1565b61148791906121c0565b8884815181106114c0577f4e487b7100000000000000000000000000000000000000000000000000000000600052603260045260246000fd5b602002602001018181525050611519565b600088848151811061150c577f4e487b7100000000000000000000000000000000000000000000000000000000600052603260045260246000fd5b6020026020010181815250505b858111156115ce57809550600460008381526020019081526020016000206001018054611545906122d5565b80601f0160208091040260200160405190810160405280929190818152602001828054611571906122d5565b80156115be5780601f10611593576101008083540402835291602001916115be565b820191906000526020600020905b8154815290600101906020018083116115a157829003601f168201915b50505050509b50600094506115e8565b85811480156115dd5750600081115b156115e757600194505b5b505080806115f590612307565b9150506112bd565b50811561163d576040518060400160405280601b81526020017f457175616c697479206265747765656e2063616e64696461746573000000000081525098505b82975050505091939550919395565b60008054906101000a900473ffffffffffffffffffffffffffffffffffffffff1681565b82805461167c906122d5565b90600052602060002090601f01602090048101928261169e57600085556116e5565b82601f106116b757805160ff19168380011785556116e5565b828001600101855582156116e5579182015b828111156116e45782518255916020019190600101906116c9565b5b5090506116f291906116f6565b5090565b5b8082111561170f5760008160009055506001016116f7565b5090565b6000611726611721846120b8565b612087565b90508281526020810184848401111561173e57600080fd5b611749848285612293565b509392505050565b6000813590506117608161241d565b92915050565b600082601f83011261177757600080fd5b8135611787848260208601611713565b91505092915050565b60008135905061179f81612434565b92915050565b6000602082840312156117b757600080fd5b60006117c584828501611751565b91505092915050565b6000602082840312156117e057600080fd5b600082013567ffffffffffffffff8111156117fa57600080fd5b61180684828501611766565b91505092915050565b60006020828403121561182157600080fd5b600061182f84828501611790565b91505092915050565b6000806040838503121561184b57600080fd5b600061185985828601611790565b925050602061186a85828601611790565b9150509250929050565b60006118808383611a16565b905092915050565b60006118948383611cee565b60408301905092915050565b60006118ac8383611d1d565b60208301905092915050565b6118c18161224b565b82525050565b6118d08161224b565b82525050565b60006118e182612118565b6118eb818561216b565b9350836020820285016118fd856120e8565b8060005b85811015611939578484038952815161191a8582611874565b945061192583612144565b925060208a01995050600181019050611901565b50829750879550505050505092915050565b600061195682612123565b611960818561217c565b935061196b836120f8565b8060005b8381101561199c5781516119838882611888565b975061198e83612151565b92505060018101905061196f565b5085935050505092915050565b60006119b48261212e565b6119be818561218d565b93506119c983612108565b8060005b838110156119fa5781516119e188826118a0565b97506119ec8361215e565b9250506001810190506119cd565b5085935050505092915050565b611a108161225d565b82525050565b6000611a2182612139565b611a2b818561219e565b9350611a3b8185602086016122a2565b611a448161240c565b840191505092915050565b6000611a5a82612139565b611a6481856121af565b9350611a748185602086016122a2565b611a7d8161240c565b840191505092915050565b6000611a956017836121af565b91507f596f75206861766520616c726561647920766f7465642e0000000000000000006000830152602082019050919050565b6000611ad56032836121af565b91507f5365756c206c2761646d696e697374726174657572207065757420656666656360008301527f7475657220636574746520616374696f6e2e00000000000000000000000000006020830152604082019050919050565b6000611b3b6014836121af565b91507f43616e646964617465206e6f7420666f756e642e0000000000000000000000006000830152602082019050919050565b6000611b7b6016836121af565b91507f456c656374696f6e20616c7265616479206f70656e2e000000000000000000006000830152602082019050919050565b6000611bbb601e836121af565b91507f54686520656c656374696f6e20697320616c726561647920636c6f73652e00006000830152602082019050919050565b6000611bfb601a836121af565b91507f456c656374696f6e206973207374696c6c206f6e676f696e672e0000000000006000830152602082019050919050565b6000611c3b6017836121af565b91507f54686520656c656374696f6e20697320636c6f7365642e0000000000000000006000830152602082019050919050565b6000611c7b6013836121af565b91507f456c656374696f6e206e6f7420666f756e642e000000000000000000000000006000830152602082019050919050565b6000611cbb6012836121af565b91507f496e76616c69642063616e6469646174652e00000000000000000000000000006000830152602082019050919050565b604082016000820151611d0460008501826118b8565b506020820151611d176020850182611d1d565b50505050565b611d2681612289565b82525050565b611d3581612289565b82525050565b6000602082019050611d5060008301846118c7565b92915050565b6000604082019050611d6b60008301856118c7565b611d786020830184611d2c565b9392505050565b60006020820190508181036000830152611d99818461194b565b905092915050565b6000604082019050611db66000830185611a07565b611dc36020830184611d2c565b9392505050565b60006020820190508181036000830152611de48184611a4f565b905092915050565b600060c0820190508181036000830152611e068189611a4f565b9050611e156020830188611d2c565b8181036040830152611e2781876118d6565b90508181036060830152611e3b81866119a9565b90508181036080830152611e4f81856119a9565b9050611e5e60a0830184611d2c565b979650505050505050565b60006020820190508181036000830152611e8281611a88565b9050919050565b60006020820190508181036000830152611ea281611ac8565b9050919050565b60006020820190508181036000830152611ec281611b2e565b9050919050565b60006020820190508181036000830152611ee281611b6e565b9050919050565b60006020820190508181036000830152611f0281611bae565b9050919050565b60006020820190508181036000830152611f2281611bee565b9050919050565b60006020820190508181036000830152611f4281611c2e565b9050919050565b60006020820190508181036000830152611f6281611c6e565b9050919050565b60006020820190508181036000830152611f8281611cae565b9050919050565b6000602082019050611f9e6000830184611d2c565b92915050565b6000604082019050611fb96000830185611d2c565b8181036020830152611fcb8184611a4f565b90509392505050565b6000608082019050611fe96000830187611d2c565b8181036020830152611ffb8186611a4f565b905061200a6040830185611a07565b6120176060830184611d2c565b95945050505050565b60006060820190506120356000830186611d2c565b81810360208301526120478185611a4f565b90506120566040830184611d2c565b949350505050565b60006040820190506120736000830185611d2c565b6120806020830184611d2c565b9392505050565b6000604051905081810181811067ffffffffffffffff821117156120ae576120ad6123dd565b5b8060405250919050565b600067ffffffffffffffff8211156120d3576120d26123dd565b5b601f19601f8301169050602081019050919050565b6000819050602082019050919050565b6000819050602082019050919050565b6000819050602082019050919050565b600081519050919050565b600081519050919050565b600081519050919050565b600081519050919050565b6000602082019050919050565b6000602082019050919050565b6000602082019050919050565b600082825260208201905092915050565b600082825260208201905092915050565b600082825260208201905092915050565b600082825260208201905092915050565b600082825260208201905092915050565b60006121cb82612289565b91506121d683612289565b9250826121e6576121e561237f565b5b828204905092915050565b60006121fc82612289565b915061220783612289565b9250817fffffffffffffffffffffffffffffffffffffffffffffffffffffffffffffffff04831182151516156122405761223f612350565b5b828202905092915050565b600061225682612269565b9050919050565b60008115159050919050565b600073ffffffffffffffffffffffffffffffffffffffff82169050919050565b6000819050919050565b82818337600083830152505050565b60005b838110156122c05780820151818401526020810190506122a5565b838111156122cf576000848401525b50505050565b600060028204905060018216806122ed57607f821691505b60208210811415612301576123006123ae565b5b50919050565b600061231282612289565b91507fffffffffffffffffffffffffffffffffffffffffffffffffffffffffffffffff82141561234557612344612350565b5b600182019050919050565b7f4e487b7100000000000000000000000000000000000000000000000000000000600052601160045260246000fd5b7f4e487b7100000000000000000000000000000000000000000000000000000000600052601260045260246000fd5b7f4e487b7100000000000000000000000000000000000000000000000000000000600052602260045260246000fd5b7f4e487b7100000000000000000000000000000000000000000000000000000000600052604160045260246000fd5b6000601f19601f8301169050919050565b6124268161224b565b811461243157600080fd5b50565b61243d81612289565b811461244857600080fd5b5056fea2646970667358221220d722186e6d25c51f5148c72197b6762c7660517d28460bf74f4dab46da34437164736f6c63430008000033",
  "immutableReferences": {},
  "source": "// SPDX-License-Identifier: MIT\npragma solidity ^0.8.0;\n\ncontract ElectionContract {\n    \n    // Structure pour stocker les dtails du candidat\n    struct Candidate {\n        uint id;\n        string name;\n        uint voteCount;\n    }\n\n    // Structure pour stocker les dtails de l'lecteur\n    struct Elector {\n        bool hasVoted;\n        uint voteCandidateId;\n    }\n\n    // Structure pour stocker les dtails d'une lection\n    struct Election {\n        uint id;\n        string name;\n        bool isClosed;\n        uint[] candidateIds;  // IDs des candidats associs  cette lection\n        uint totalVotes;\n    }\n\n    // Dclaration d'administrateur\n    address public admin;\n\n    // Compteurs pour garder la trace des lections et des candidats\n    uint public candidatesCount;\n    uint public electionsCount;\n\n    // Mapping pour associer les lecteurs  leur vote\n    mapping(address => Elector) public electors;\n\n    // Mapping pour grer les candidats et les lections\n    mapping(uint => Candidate) public candidates;\n    mapping(uint => Election) public elections;\n\n    // Tableau pour stocker l'audit des votes\n    struct VoteRecord {\n        address voter;\n        uint candidateId;\n    }\n    VoteRecord[] public voteAuditTrail;\n\n    // vnements pour notifier les actions\n    event CandidateAdded(uint indexed id, string name);\n    //event CandidateAdded(uint candidateId, string candidateName);\n    event ElectionCreated(uint electionId, string electionName);\n    event CandidateAssociatedToElection(uint electionId, uint candidateId);\n    event VoteCast(address elector, uint candidateId);\n    event VotingOpened(uint electionId);\n    event VotingClosed(uint electionId);\n    event ResultsPublished(uint indexed _electionId, string winnerName, uint winnerVoteCount);\n    //event ResultsPublished(uint electionId, string winnerName, uint winnerVoteCount);\n\n    // Modificateurs\n    modifier onlyAdmin() {\n        require(msg.sender == admin, \"Seul l'administrateur peut effectuer cette action.\");\n        _;\n    }\n\n    modifier isElectionOpen(uint _electionId) {\n        require(!elections[_electionId].isClosed, \"The election is closed.\");\n        _;\n    }\n\n    constructor() {\n        admin = msg.sender;\n    }\n\n    // Ajouter un candidat globalement\n    function addCandidate(string memory _name) public onlyAdmin {\n        candidatesCount++;\n        candidates[candidatesCount] = Candidate(candidatesCount, _name, 0);\n        emit CandidateAdded(candidatesCount, _name);\n    }\n\n    // Crer une lection et retourner son ID\n    function createElection(string memory _name) public onlyAdmin returns (uint) {\n        electionsCount++;\n        Election storage newElection = elections[electionsCount];\n        newElection.id = electionsCount;\n        newElection.name = _name;\n        newElection.isClosed = true;  // Par dfaut, l'lection est ferme\n        emit ElectionCreated(electionsCount, _name);\n        return electionsCount;\n    }\n\n    // Associer un candidat existant  une lection\n    function addCandidateToElection(uint _electionId, uint _candidateId) public onlyAdmin {\n        require(elections[_electionId].id != 0, \"Election not found.\");\n        require(candidates[_candidateId].id != 0, \"Candidate not found.\");\n        \n        elections[_electionId].candidateIds.push(_candidateId);\n        emit CandidateAssociatedToElection(_electionId, _candidateId);\n    }\n\n    // Ouvrir les votes pour une lection\n    function openVoting(uint _electionId) public onlyAdmin {\n        require(elections[_electionId].isClosed == true, \"Election already open.\");\n        elections[_electionId].isClosed = false;\n        emit VotingOpened(_electionId);\n    }\n\n    // Fermer les votes pour une lection\n    function closeVoting(uint _electionId) public onlyAdmin {\n        require(elections[_electionId].isClosed == false, \"The election is already close.\");\n        elections[_electionId].isClosed = true;\n        emit VotingClosed(_electionId);\n    }\n\n    // Voter pour un candidat\n    function vote(uint _electionId, uint _candidateId) public isElectionOpen(_electionId) {\n        require(!electors[msg.sender].hasVoted, \"You have already voted.\");\n        require(_candidateId > 0 && _candidateId <= candidatesCount, \"Invalid candidate.\");\n\n        electors[msg.sender] = Elector(true, _candidateId);\n        candidates[_candidateId].voteCount++;\n        elections[_electionId].totalVotes++;\n\n        voteAuditTrail.push(VoteRecord(msg.sender, _candidateId));\n\n        emit VoteCast(msg.sender, _candidateId);\n        emit LogTotalVotes(_electionId, elections[_electionId].totalVotes); // Ajout pour vrifier `totalVotes`\n    }\n\n    event LogTotalVotes(uint electionId, uint totalVotes);\n\n\n\n    function getElectionResults(uint _electionId) public view returns (\n        string memory winnerName,\n        uint winnerVoteCount,\n        string[] memory candidateNames,\n        uint[] memory candidateVotes,\n        uint[] memory candidatePercentages,\n        uint totalVotes\n    ) {\n        require(elections[_electionId].id != 0, \"Election not found.\");\n        require(elections[_electionId].isClosed == true, \"Election is still ongoing.\");\n\n        totalVotes = elections[_electionId].totalVotes;\n        uint winningVoteCount = 0;\n        bool isTie = false;\n\n        uint numCandidates = elections[_electionId].candidateIds.length;\n        candidateNames = new string[](numCandidates);\n        candidateVotes = new uint[](numCandidates);\n        candidatePercentages = new uint[](numCandidates);\n\n        // Parcours des candidats pour trouver le gagnant et collecter les votes de chaque candidat\n        for (uint i = 0; i < numCandidates; i++) {\n            uint candidateId = elections[_electionId].candidateIds[i];\n            uint votes = candidates[candidateId].voteCount;\n\n            candidateNames[i] = candidates[candidateId].name;\n            candidateVotes[i] = votes;\n\n            if (totalVotes > 0) {\n                candidatePercentages[i] = (votes * 100) / totalVotes;\n            } else {\n                candidatePercentages[i] = 0;\n            }\n\n            if (votes > winningVoteCount) {\n                winningVoteCount = votes;\n                winnerName = candidates[candidateId].name;\n                isTie = false;\n            } else if (votes == winningVoteCount && votes > 0) {\n                isTie = true;\n            }\n        }\n\n        if (isTie) {\n            winnerName = \"Equality between candidates\";\n        }\n        winnerVoteCount = winningVoteCount;\n    }\n\n    // Rcuprer l'audit des votes (optionnel)\n    function getVoteAuditTrail() public view returns (VoteRecord[] memory) {\n        return voteAuditTrail;\n    }\n}\n",
  "sourcePath": "/home/infraction/voting-system/smart-contracts/contracts/ElectionContract.sol",
  "compiler": {
    "name": "solc",
    "version": "0.8.0+commit.c7dfd78e.Emscripten.clang"
  },
  "schemaVersion": "3.4.16",
  "updatedAt": "2024-11-01T08:01:49.889Z",
  "networkType": "ethereum",
  "devdoc": {
    "kind": "dev",
    "methods": {},
    "version": 1
  },
  "userdoc": {
    "kind": "user",
    "methods": {},
    "version": 1
  }
}