{
  "contractName": "VoteContract",
  "abi": [
    {
      "inputs": [],
      "stateMutability": "nonpayable",
      "type": "constructor"
    },
    {
      "anonymous": false,
      "inputs": [
        {
          "indexed": false,
          "internalType": "uint256",
          "name": "id",
          "type": "uint256"
        },
        {
          "indexed": false,
          "internalType": "string",
          "name": "name",
          "type": "string"
        }
      ],
      "name": "CandidateAdded",
      "type": "event"
    },
    {
      "anonymous": false,
      "inputs": [
        {
          "indexed": false,
          "internalType": "uint256",
          "name": "electionId",
          "type": "uint256"
        },
        {
          "indexed": false,
          "internalType": "uint256",
          "name": "candidateId",
          "type": "uint256"
        }
      ],
      "name": "CandidateAssociatedToElection",
      "type": "event"
    },
    {
      "anonymous": false,
      "inputs": [
        {
          "indexed": false,
          "internalType": "uint256",
          "name": "id",
          "type": "uint256"
        },
        {
          "indexed": false,
          "internalType": "string",
          "name": "name",
          "type": "string"
        }
      ],
      "name": "ElectionCreated",
      "type": "event"
    },
    {
      "anonymous": false,
      "inputs": [
        {
          "indexed": false,
          "internalType": "string",
          "name": "winnerName",
          "type": "string"
        },
        {
          "indexed": false,
          "internalType": "uint256",
          "name": "winnerVoteCount",
          "type": "uint256"
        }
      ],
      "name": "ResultsPublished",
      "type": "event"
    },
    {
      "anonymous": false,
      "inputs": [
        {
          "indexed": false,
          "internalType": "address",
          "name": "voter",
          "type": "address"
        },
        {
          "indexed": false,
          "internalType": "uint256",
          "name": "candidateId",
          "type": "uint256"
        }
      ],
      "name": "VoteCast",
      "type": "event"
    },
    {
      "anonymous": false,
      "inputs": [],
      "name": "VotingClosed",
      "type": "event"
    },
    {
      "anonymous": false,
      "inputs": [],
      "name": "VotingOpened",
      "type": "event"
    },
    {
      "inputs": [],
      "name": "admin",
      "outputs": [
        {
          "internalType": "address",
          "name": "",
          "type": "address"
        }
      ],
      "stateMutability": "view",
      "type": "function",
      "constant": true
    },
    {
      "inputs": [
        {
          "internalType": "uint256",
          "name": "",
          "type": "uint256"
        }
      ],
      "name": "candidates",
      "outputs": [
        {
          "internalType": "uint256",
          "name": "id",
          "type": "uint256"
        },
        {
          "internalType": "string",
          "name": "name",
          "type": "string"
        },
        {
          "internalType": "uint256",
          "name": "voteCount",
          "type": "uint256"
        }
      ],
      "stateMutability": "view",
      "type": "function",
      "constant": true
    },
    {
      "inputs": [],
      "name": "candidatesCount",
      "outputs": [
        {
          "internalType": "uint256",
          "name": "",
          "type": "uint256"
        }
      ],
      "stateMutability": "view",
      "type": "function",
      "constant": true
    },
    {
      "inputs": [
        {
          "internalType": "uint256",
          "name": "",
          "type": "uint256"
        }
      ],
      "name": "elections",
      "outputs": [
        {
          "internalType": "uint256",
          "name": "id",
          "type": "uint256"
        },
        {
          "internalType": "string",
          "name": "name",
          "type": "string"
        },
        {
          "internalType": "bool",
          "name": "isClosed",
          "type": "bool"
        }
      ],
      "stateMutability": "view",
      "type": "function",
      "constant": true
    },
    {
      "inputs": [],
      "name": "electionsCount",
      "outputs": [
        {
          "internalType": "uint256",
          "name": "",
          "type": "uint256"
        }
      ],
      "stateMutability": "view",
      "type": "function",
      "constant": true
    },
    {
      "inputs": [
        {
          "internalType": "address",
          "name": "",
          "type": "address"
        }
      ],
      "name": "electors",
      "outputs": [
        {
          "internalType": "bool",
          "name": "hasVoted",
          "type": "bool"
        },
        {
          "internalType": "uint256",
          "name": "voteCandidateId",
          "type": "uint256"
        }
      ],
      "stateMutability": "view",
      "type": "function",
      "constant": true
    },
    {
      "inputs": [
        {
          "internalType": "uint256",
          "name": "",
          "type": "uint256"
        }
      ],
      "name": "voteAuditTrail",
      "outputs": [
        {
          "internalType": "address",
          "name": "voter",
          "type": "address"
        },
        {
          "internalType": "uint256",
          "name": "candidateId",
          "type": "uint256"
        }
      ],
      "stateMutability": "view",
      "type": "function",
      "constant": true
    },
    {
      "inputs": [],
      "name": "votingOpen",
      "outputs": [
        {
          "internalType": "bool",
          "name": "",
          "type": "bool"
        }
      ],
      "stateMutability": "view",
      "type": "function",
      "constant": true
    },
    {
      "inputs": [
        {
          "internalType": "string",
          "name": "_name",
          "type": "string"
        }
      ],
      "name": "addCandidate",
      "outputs": [],
      "stateMutability": "nonpayable",
      "type": "function"
    },
    {
      "inputs": [
        {
          "internalType": "string",
          "name": "_name",
          "type": "string"
        }
      ],
      "name": "createElection",
      "outputs": [
        {
          "internalType": "uint256",
          "name": "",
          "type": "uint256"
        }
      ],
      "stateMutability": "nonpayable",
      "type": "function"
    },
    {
      "inputs": [
        {
          "internalType": "uint256",
          "name": "_electionId",
          "type": "uint256"
        },
        {
          "internalType": "uint256",
          "name": "_candidateId",
          "type": "uint256"
        }
      ],
      "name": "addCandidateToElection",
      "outputs": [],
      "stateMutability": "nonpayable",
      "type": "function"
    },
    {
      "inputs": [
        {
          "internalType": "uint256",
          "name": "_electionId",
          "type": "uint256"
        }
      ],
      "name": "openVoting",
      "outputs": [],
      "stateMutability": "nonpayable",
      "type": "function"
    },
    {
      "inputs": [
        {
          "internalType": "uint256",
          "name": "_electionId",
          "type": "uint256"
        }
      ],
      "name": "closeVoting",
      "outputs": [],
      "stateMutability": "nonpayable",
      "type": "function"
    },
    {
      "inputs": [
        {
          "internalType": "uint256",
          "name": "_candidateId",
          "type": "uint256"
        }
      ],
      "name": "vote",
      "outputs": [],
      "stateMutability": "nonpayable",
      "type": "function"
    },
    {
      "inputs": [
        {
          "internalType": "uint256",
          "name": "electionId",
          "type": "uint256"
        }
      ],
      "name": "getWinner",
      "outputs": [
        {
          "internalType": "string",
          "name": "winnerName",
          "type": "string"
        },
        {
          "internalType": "uint256",
          "name": "winnerVoteCount",
          "type": "uint256"
        }
      ],
      "stateMutability": "nonpayable",
      "type": "function"
    },
    {
      "inputs": [],
      "name": "getVoteAuditTrail",
      "outputs": [
        {
          "components": [
            {
              "internalType": "address",
              "name": "voter",
              "type": "address"
            },
            {
              "internalType": "uint256",
              "name": "candidateId",
              "type": "uint256"
            }
          ],
          "internalType": "struct VoteContract.VoteRecord[]",
          "name": "",
          "type": "tuple[]"
        }
      ],
      "stateMutability": "view",
      "type": "function",
      "constant": true
    }
  ],
  "bytecode": "0x608060405234801561001057600080fd5b50336000806101000a81548173ffffffffffffffffffffffffffffffffffffffff021916908373ffffffffffffffffffffffffffffffffffffffff160217905550611dbd806100606000396000f3fe608060405234801561001057600080fd5b50600436106101005760003560e01c806349175295116100975780639a74c695116100665780639a74c695146102d8578063a95824b4146102f6578063d2111a7214610314578063f851a4401461033057610100565b8063491752951461023d5780635e6fef011461026e5780635f2ba6b2146102a0578063778c6439146102bc57610100565b80632d35a8a2116100d35780632d35a8a2146101a05780633477ee2e146101be5780634129b2c9146101f0578063462e91ec1461022157610100565b80630121b93f146101055780630356daed14610121578063067efedf1461013f57806315cf4a5f14610170575b600080fd5b61011f600480360381019061011a9190611422565b61034e565b005b610129610613565b604051610136919061185a565b60405180910390f35b610159600480360381019061015491906113b8565b6106d2565b604051610167929190611897565b60405180910390f35b61018a600480360381019061018591906113e1565b610703565b6040516101979190611a10565b60405180910390f35b6101a861084c565b6040516101b59190611a10565b60405180910390f35b6101d860048036038101906101d39190611422565b610852565b6040516101e793929190611a99565b60405180910390f35b61020a60048036038101906102059190611422565b610904565b6040516102189291906118c0565b60405180910390f35b61023b600480360381019061023691906113e1565b610b80565b005b61025760048036038101906102529190611422565b610ccb565b604051610265929190611831565b60405180910390f35b61028860048036038101906102839190611422565b610d1f565b60405161029793929190611a5b565b60405180910390f35b6102ba60048036038101906102b59190611422565b610dde565b005b6102d660048036038101906102d1919061144b565b610f34565b005b6102e06110f0565b6040516102ed9190611a10565b60405180910390f35b6102fe6110f6565b60405161030b919061187c565b60405180910390f35b61032e60048036038101906103299190611422565b611109565b005b61033861125f565b6040516103459190611816565b60405180910390f35b600360009054906101000a900460ff1661039d576040517f08c379a0000000000000000000000000000000000000000000000000000000008152600401610394906119d0565b60405180910390fd5b600560003373ffffffffffffffffffffffffffffffffffffffff1673ffffffffffffffffffffffffffffffffffffffff16815260200190815260200160002060000160009054906101000a900460ff161561042d576040517f08c379a0000000000000000000000000000000000000000000000000000000008152600401610424906119f0565b60405180910390fd5b60008111801561043f57506001548111155b61047e576040517f08c379a000000000000000000000000000000000000000000000000000000000815260040161047590611930565b60405180910390fd5b604051806040016040528060011515815260200182815250600560003373ffffffffffffffffffffffffffffffffffffffff1673ffffffffffffffffffffffffffffffffffffffff16815260200190815260200160002060008201518160000160006101000a81548160ff0219169083151502179055506020820151816001015590505060046000828152602001908152602001600020600201600081548092919061052990611c72565b9190505550600760405180604001604052803373ffffffffffffffffffffffffffffffffffffffff16815260200183815250908060018154018082558091505060019003906000526020600020906002020160009091909190915060008201518160000160006101000a81548173ffffffffffffffffffffffffffffffffffffffff021916908373ffffffffffffffffffffffffffffffffffffffff1602179055506020820151816001015550507fa36cc2bebb74db33e9f88110a07ef56e1b31b24b4c4f51b54b1664266e29f45b3382604051610608929190611831565b60405180910390a150565b60606007805480602002602001604051908101604052809291908181526020016000905b828210156106c957838290600052602060002090600202016040518060400160405290816000820160009054906101000a900473ffffffffffffffffffffffffffffffffffffffff1673ffffffffffffffffffffffffffffffffffffffff1673ffffffffffffffffffffffffffffffffffffffff16815260200160018201548152505081526020019060010190610637565b50505050905090565b60056020528060005260406000206000915090508060000160009054906101000a900460ff16908060010154905082565b60008060009054906101000a900473ffffffffffffffffffffffffffffffffffffffff1673ffffffffffffffffffffffffffffffffffffffff163373ffffffffffffffffffffffffffffffffffffffff1614610794576040517f08c379a000000000000000000000000000000000000000000000000000000000815260040161078b906119b0565b60405180910390fd5b600260008154809291906107a790611c72565b9190505550600060066000600254815260200190815260200160002090506002548160000181905550828160010190805190602001906107e8929190611283565b5060018160020160006101000a81548160ff0219169083151502179055507f52be7c4e77b4de76b7607d621492061fe13b58597e72dfb5e51ab8f6187ed14160025484604051610839929190611a2b565b60405180910390a1600254915050919050565b60015481565b600460205280600052604060002060009150905080600001549080600101805461087b90611c40565b80601f01602080910402602001604051908101604052809291908181526020018280546108a790611c40565b80156108f45780601f106108c9576101008083540402835291602001916108f4565b820191906000526020600020905b8154815290600101906020018083116108d757829003601f168201915b5050505050908060020154905083565b60606000600360009054906101000a900460ff1615610958576040517f08c379a000000000000000000000000000000000000000000000000000000000815260040161094f906118f0565b60405180910390fd5b6000600660008581526020019081526020016000206000015414156109b2576040517f08c379a00000000000000000000000000000000000000000000000000000000081526004016109a990611970565b60405180910390fd5b60008060005b6006600087815260200190815260200160002060030180549050811015610a85576000600660008881526020019081526020016000206003018281548110610a29577f4e487b7100000000000000000000000000000000000000000000000000000000600052603260045260246000fd5b906000526020600020015490508360046000838152602001908152602001600020600201541115610a7157600460008281526020019081526020016000206002015493508092505b508080610a7d90611c72565b9150506109b8565b50600460008281526020019081526020016000206001018054610aa790611c40565b80601f0160208091040260200160405190810160405280929190818152602001828054610ad390611c40565b8015610b205780601f10610af557610100808354040283529160200191610b20565b820191906000526020600020905b815481529060010190602001808311610b0357829003601f168201915b50505050509350600460008281526020019081526020016000206002015492507f0447b0924ab00c705ee2d6ed3bd885f4c142ce7fd7766f6b68d927495435cc788484604051610b719291906118c0565b60405180910390a15050915091565b60008054906101000a900473ffffffffffffffffffffffffffffffffffffffff1673ffffffffffffffffffffffffffffffffffffffff163373ffffffffffffffffffffffffffffffffffffffff1614610c0e576040517f08c379a0000000000000000000000000000000000000000000000000000000008152600401610c05906119b0565b60405180910390fd5b60016000815480929190610c2190611c72565b9190505550604051806060016040528060015481526020018281526020016000815250600460006001548152602001908152602001600020600082015181600001556020820151816001019080519060200190610c7f929190611283565b50604082015181600201559050507fe83b2a43e7e82d975c8a0a6d2f045153c869e111136a34d1889ab7b598e396a360015482604051610cc0929190611a2b565b60405180910390a150565b60078181548110610cdb57600080fd5b90600052602060002090600202016000915090508060000160009054906101000a900473ffffffffffffffffffffffffffffffffffffffff16908060010154905082565b6006602052806000526040600020600091509050806000015490806001018054610d4890611c40565b80601f0160208091040260200160405190810160405280929190818152602001828054610d7490611c40565b8015610dc15780601f10610d9657610100808354040283529160200191610dc1565b820191906000526020600020905b815481529060010190602001808311610da457829003601f168201915b5050505050908060020160009054906101000a900460ff16905083565b60008054906101000a900473ffffffffffffffffffffffffffffffffffffffff1673ffffffffffffffffffffffffffffffffffffffff163373ffffffffffffffffffffffffffffffffffffffff1614610e6c576040517f08c379a0000000000000000000000000000000000000000000000000000000008152600401610e63906119b0565b60405180910390fd5b600115156006600083815260200190815260200160002060020160009054906101000a900460ff16151514610ed6576040517f08c379a0000000000000000000000000000000000000000000000000000000008152600401610ecd90611950565b60405180910390fd5b60006006600083815260200190815260200160002060020160006101000a81548160ff0219169083151502179055507fa737faa632a36c00ccb4220893426e922f9442f1cab67acd8301f88a596d4abc60405160405180910390a150565b60008054906101000a900473ffffffffffffffffffffffffffffffffffffffff1673ffffffffffffffffffffffffffffffffffffffff163373ffffffffffffffffffffffffffffffffffffffff1614610fc2576040517f08c379a0000000000000000000000000000000000000000000000000000000008152600401610fb9906119b0565b60405180910390fd5b60006006600084815260200190815260200160002060000154141561101c576040517f08c379a000000000000000000000000000000000000000000000000000000000815260040161101390611970565b60405180910390fd5b600060046000838152602001908152602001600020600001541415611076576040517f08c379a000000000000000000000000000000000000000000000000000000000815260040161106d90611910565b60405180910390fd5b600660008381526020019081526020016000206003018190806001815401808255809150506001900390600052602060002001600090919091909150557f53e77cff1443a94a0f2329eaebf48556e07fca88a138670b61704456cd27ebed82826040516110e4929190611ad7565b60405180910390a15050565b60025481565b600360009054906101000a900460ff1681565b60008054906101000a900473ffffffffffffffffffffffffffffffffffffffff1673ffffffffffffffffffffffffffffffffffffffff163373ffffffffffffffffffffffffffffffffffffffff1614611197576040517f08c379a000000000000000000000000000000000000000000000000000000000815260040161118e906119b0565b60405180910390fd5b600015156006600083815260200190815260200160002060020160009054906101000a900460ff16151514611201576040517f08c379a00000000000000000000000000000000000000000000000000000000081526004016111f890611990565b60405180910390fd5b60016006600083815260200190815260200160002060020160006101000a81548160ff0219169083151502179055507f66b6cb4a09abc3bf1cacc3c67420258856ffdad0deba9078cbd1658957b5021860405160405180910390a150565b60008054906101000a900473ffffffffffffffffffffffffffffffffffffffff1681565b82805461128f90611c40565b90600052602060002090601f0160209004810192826112b157600085556112f8565b82601f106112ca57805160ff19168380011785556112f8565b828001600101855582156112f8579182015b828111156112f75782518255916020019190600101906112dc565b5b5090506113059190611309565b5090565b5b8082111561132257600081600090555060010161130a565b5090565b600061133961133484611b31565b611b00565b90508281526020810184848401111561135157600080fd5b61135c848285611bfe565b509392505050565b60008135905061137381611d59565b92915050565b600082601f83011261138a57600080fd5b813561139a848260208601611326565b91505092915050565b6000813590506113b281611d70565b92915050565b6000602082840312156113ca57600080fd5b60006113d884828501611364565b91505092915050565b6000602082840312156113f357600080fd5b600082013567ffffffffffffffff81111561140d57600080fd5b61141984828501611379565b91505092915050565b60006020828403121561143457600080fd5b6000611442848285016113a3565b91505092915050565b6000806040838503121561145e57600080fd5b600061146c858286016113a3565b925050602061147d858286016113a3565b9150509250929050565b600061149383836117c9565b60408301905092915050565b6114a881611bb6565b82525050565b6114b781611bb6565b82525050565b60006114c882611b71565b6114d28185611b94565b93506114dd83611b61565b8060005b8381101561150e5781516114f58882611487565b975061150083611b87565b9250506001810190506114e1565b5085935050505092915050565b61152481611bc8565b82525050565b600061153582611b7c565b61153f8185611ba5565b935061154f818560208601611c0d565b61155881611d48565b840191505092915050565b6000611570601783611ba5565b91507f566f74696e67206973207374696c6c206f6e676f696e670000000000000000006000830152602082019050919050565b60006115b0601383611ba5565b91507f43616e646964617465206e6f7420666f756e64000000000000000000000000006000830152602082019050919050565b60006115f0601183611ba5565b91507f496e76616c69642063616e6469646174650000000000000000000000000000006000830152602082019050919050565b6000611630601683611ba5565b91507f566f74696e6720697320616c7265616479206f70656e000000000000000000006000830152602082019050919050565b6000611670601283611ba5565b91507f456c656374696f6e206e6f7420666f756e6400000000000000000000000000006000830152602082019050919050565b60006116b0601a83611ba5565b91507f456c656374696f6e20697320616c726561647920636c6f7365640000000000006000830152602082019050919050565b60006116f0602283611ba5565b91507f4f6e6c792061646d696e2063616e20706572666f726d2074686973206163746960008301527f6f6e0000000000000000000000000000000000000000000000000000000000006020830152604082019050919050565b6000611756601083611ba5565b91507f566f74696e6720697320636c6f736564000000000000000000000000000000006000830152602082019050919050565b6000611796601683611ba5565b91507f596f75206861766520616c726561647920766f746564000000000000000000006000830152602082019050919050565b6040820160008201516117df600085018261149f565b5060208201516117f260208501826117f8565b50505050565b61180181611bf4565b82525050565b61181081611bf4565b82525050565b600060208201905061182b60008301846114ae565b92915050565b600060408201905061184660008301856114ae565b6118536020830184611807565b9392505050565b6000602082019050818103600083015261187481846114bd565b905092915050565b6000602082019050611891600083018461151b565b92915050565b60006040820190506118ac600083018561151b565b6118b96020830184611807565b9392505050565b600060408201905081810360008301526118da818561152a565b90506118e96020830184611807565b9392505050565b6000602082019050818103600083015261190981611563565b9050919050565b60006020820190508181036000830152611929816115a3565b9050919050565b60006020820190508181036000830152611949816115e3565b9050919050565b6000602082019050818103600083015261196981611623565b9050919050565b6000602082019050818103600083015261198981611663565b9050919050565b600060208201905081810360008301526119a9816116a3565b9050919050565b600060208201905081810360008301526119c9816116e3565b9050919050565b600060208201905081810360008301526119e981611749565b9050919050565b60006020820190508181036000830152611a0981611789565b9050919050565b6000602082019050611a256000830184611807565b92915050565b6000604082019050611a406000830185611807565b8181036020830152611a52818461152a565b90509392505050565b6000606082019050611a706000830186611807565b8181036020830152611a82818561152a565b9050611a91604083018461151b565b949350505050565b6000606082019050611aae6000830186611807565b8181036020830152611ac0818561152a565b9050611acf6040830184611807565b949350505050565b6000604082019050611aec6000830185611807565b611af96020830184611807565b9392505050565b6000604051905081810181811067ffffffffffffffff82111715611b2757611b26611d19565b5b8060405250919050565b600067ffffffffffffffff821115611b4c57611b4b611d19565b5b601f19601f8301169050602081019050919050565b6000819050602082019050919050565b600081519050919050565b600081519050919050565b6000602082019050919050565b600082825260208201905092915050565b600082825260208201905092915050565b6000611bc182611bd4565b9050919050565b60008115159050919050565b600073ffffffffffffffffffffffffffffffffffffffff82169050919050565b6000819050919050565b82818337600083830152505050565b60005b83811015611c2b578082015181840152602081019050611c10565b83811115611c3a576000848401525b50505050565b60006002820490506001821680611c5857607f821691505b60208210811415611c6c57611c6b611cea565b5b50919050565b6000611c7d82611bf4565b91507fffffffffffffffffffffffffffffffffffffffffffffffffffffffffffffffff821415611cb057611caf611cbb565b5b600182019050919050565b7f4e487b7100000000000000000000000000000000000000000000000000000000600052601160045260246000fd5b7f4e487b7100000000000000000000000000000000000000000000000000000000600052602260045260246000fd5b7f4e487b7100000000000000000000000000000000000000000000000000000000600052604160045260246000fd5b6000601f19601f8301169050919050565b611d6281611bb6565b8114611d6d57600080fd5b50565b611d7981611bf4565b8114611d8457600080fd5b5056fea2646970667358221220932907cf4e3437c08e22120610cae5919e9c8b98b54285617a9046bea3e9f58864736f6c63430008000033",
  "immutableReferences": {},
  "source": "// SPDX-License-Identifier: MIT\npragma solidity ^0.8.0;\n\ncontract VoteContract {\n    struct Candidate {\n        uint id;\n        string name;\n        uint voteCount;\n    }\n\n    struct Elector {  // Remplace \"Voter\" par \"Elector\"\n        bool hasVoted;\n        uint voteCandidateId;\n    }\n\n    struct Election {\n        uint id;\n        string name;\n        bool isClosed;\n        uint[] candidateIds; // IDs des candidats associs  cette lection\n    }\n\n    struct VoteRecord {\n        address voter;\n        uint candidateId;\n    }\n\n    address public admin;\n    uint public candidatesCount;\n    uint public electionsCount;\n    bool public votingOpen;\n\n    mapping(uint => Candidate) public candidates;\n    mapping(address => Elector) public electors;  // Remplace \"voters\" par \"electors\"\n    mapping(uint => Election) public elections;\n\n    VoteRecord[] public voteAuditTrail;\n\n    event CandidateAdded(uint id, string name);\n    event ElectionCreated(uint id, string name);\n    event CandidateAssociatedToElection(uint electionId, uint candidateId);\n    event VoteCast(address voter, uint candidateId);\n    event VotingClosed();\n    event VotingOpened();\n    event ResultsPublished(string winnerName, uint winnerVoteCount);\n\n    constructor() {\n        admin = msg.sender;\n    }\n\n    modifier onlyAdmin() {\n        require(msg.sender == admin, \"Only admin can perform this action\");\n        _;\n    }\n\n    modifier isVotingOpen() {\n        require(votingOpen, \"Voting is closed\");\n        _;\n    }\n\n    // Ajouter un candidat globalement (hors lection)\n    function addCandidate(string memory _name) public onlyAdmin {\n        candidatesCount++;\n        candidates[candidatesCount] = Candidate(candidatesCount, _name, 0);\n        emit CandidateAdded(candidatesCount, _name);\n    }\n\n    // Crer une lection\n    function createElection(string memory _name) public onlyAdmin returns (uint) {\n        electionsCount++;\n        Election storage newElection = elections[electionsCount];\n        newElection.id = electionsCount;\n        newElection.name = _name;\n        newElection.isClosed = true;\n\n        emit ElectionCreated(electionsCount, _name);\n        return electionsCount;\n    }\n\n    // Associer un candidat existant  une lection\n    function addCandidateToElection(uint _electionId, uint _candidateId) public onlyAdmin {\n        require(elections[_electionId].id != 0, \"Election not found\");\n        require(candidates[_candidateId].id != 0, \"Candidate not found\");\n\n        elections[_electionId].candidateIds.push(_candidateId);\n        emit CandidateAssociatedToElection(_electionId, _candidateId);\n    }\n\n    // Ouvrir le vote\n    function openVoting(uint _electionId) public onlyAdmin {\n        require(elections[_electionId].isClosed == true, \"Voting is already open\");\n        elections[_electionId].isClosed = false;\n        emit VotingOpened();\n    }\n\n    // Fermer le vote\n    function closeVoting(uint _electionId) public onlyAdmin {\n        require(elections[_electionId].isClosed == false, \"Election is already closed\");\n        elections[_electionId].isClosed = true;\n        emit VotingClosed();\n    }\n\n    // Voter pour un candidat\n    function vote(uint _candidateId) public isVotingOpen {\n        require(!electors[msg.sender].hasVoted, \"You have already voted\");  // Remplace \"voters\" par \"electors\"\n        require(_candidateId > 0 && _candidateId <= candidatesCount, \"Invalid candidate\");\n\n        electors[msg.sender] = Elector(true, _candidateId);  // Remplace \"Voter\" par \"Elector\"\n        candidates[_candidateId].voteCount++;\n\n        voteAuditTrail.push(VoteRecord(msg.sender, _candidateId));\n\n        emit VoteCast(msg.sender, _candidateId);\n    }\n\n    // Rcuprer le gagnant de l'lection\n    function getWinner(uint electionId) public returns (string memory winnerName, uint winnerVoteCount) {\n        require(!votingOpen, \"Voting is still ongoing\");\n        require(elections[electionId].id != 0, \"Election not found\");\n\n        uint winningVoteCount = 0;\n        uint winnerId = 0;\n\n        for (uint i = 0; i < elections[electionId].candidateIds.length; i++) {\n            uint candidateId = elections[electionId].candidateIds[i];\n            if (candidates[candidateId].voteCount > winningVoteCount) {\n                winningVoteCount = candidates[candidateId].voteCount;\n                winnerId = candidateId;\n            }\n        }\n\n        winnerName = candidates[winnerId].name;\n        winnerVoteCount = candidates[winnerId].voteCount;\n\n        emit ResultsPublished(winnerName, winnerVoteCount);\n    }\n\n    // Rcuprer les votes enregistrs (audit)\n    function getVoteAuditTrail() public view returns (VoteRecord[] memory) {\n        return voteAuditTrail;\n    }\n}\n",
  "sourcePath": "/home/infraction/voting-system/smart-contracts/contracts/VoteContract.sol",
  "compiler": {
    "name": "solc",
    "version": "0.8.0+commit.c7dfd78e.Emscripten.clang"
  },
  "schemaVersion": "3.4.16",
  "updatedAt": "2024-10-20T05:47:53.682Z",
  "networkType": "ethereum",
  "devdoc": {
    "kind": "dev",
    "methods": {},
    "version": 1
  },
  "userdoc": {
    "kind": "user",
    "methods": {},
    "version": 1
  }
}